{
  "_format": "hh-sol-artifact-1",
  "contractName": "HabitTracker",
  "sourceName": "contracts/HabitTracker.sol",
  "abi": [
    {
      "inputs": [],
      "stateMutability": "nonpayable",
      "type": "constructor"
    },
    {
      "anonymous": false,
      "inputs": [
        {
          "indexed": true,
          "internalType": "address",
          "name": "user",
          "type": "address"
        },
        {
          "indexed": false,
          "internalType": "uint256",
          "name": "habitId",
          "type": "uint256"
        },
        {
          "indexed": false,
          "internalType": "uint256",
          "name": "day",
          "type": "uint256"
        },
        {
          "indexed": false,
          "internalType": "uint256",
          "name": "streak",
          "type": "uint256"
        }
      ],
      "name": "CheckedIn",
      "type": "event"
    },
    {
      "anonymous": false,
      "inputs": [
        {
          "indexed": true,
          "internalType": "address",
          "name": "user",
          "type": "address"
        },
        {
          "indexed": false,
          "internalType": "uint256",
          "name": "habitId",
          "type": "uint256"
        },
        {
          "indexed": false,
          "internalType": "bool",
          "name": "success",
          "type": "bool"
        },
        {
          "indexed": false,
          "internalType": "uint256",
          "name": "reward",
          "type": "uint256"
        }
      ],
      "name": "HabitCompleted",
      "type": "event"
    },
    {
      "anonymous": false,
      "inputs": [
        {
          "indexed": true,
          "internalType": "address",
          "name": "user",
          "type": "address"
        },
        {
          "indexed": false,
          "internalType": "string",
          "name": "title",
          "type": "string"
        },
        {
          "indexed": false,
          "internalType": "uint256",
          "name": "habitId",
          "type": "uint256"
        },
        {
          "indexed": false,
          "internalType": "uint256",
          "name": "durationDays",
          "type": "uint256"
        },
        {
          "indexed": false,
          "internalType": "uint256",
          "name": "dailyStake",
          "type": "uint256"
        }
      ],
      "name": "HabitCreated",
      "type": "event"
    },
    {
      "anonymous": false,
      "inputs": [
        {
          "indexed": true,
          "internalType": "address",
          "name": "admin",
          "type": "address"
        },
        {
          "indexed": false,
          "internalType": "uint256",
          "name": "amount",
          "type": "uint256"
        }
      ],
      "name": "PoolWithdrawn",
      "type": "event"
    },
    {
      "inputs": [],
      "name": "MAX_DURATION",
      "outputs": [
        {
          "internalType": "uint256",
          "name": "",
          "type": "uint256"
        }
      ],
      "stateMutability": "view",
      "type": "function"
    },
    {
      "inputs": [],
      "name": "MIN_DURATION",
      "outputs": [
        {
          "internalType": "uint256",
          "name": "",
          "type": "uint256"
        }
      ],
      "stateMutability": "view",
      "type": "function"
    },
    {
      "inputs": [],
      "name": "STREAK_BONUS",
      "outputs": [
        {
          "internalType": "uint256",
          "name": "",
          "type": "uint256"
        }
      ],
      "stateMutability": "view",
      "type": "function"
    },
    {
      "inputs": [],
      "name": "SUCCESS_THRESHOLD",
      "outputs": [
        {
          "internalType": "uint256",
          "name": "",
          "type": "uint256"
        }
      ],
      "stateMutability": "view",
      "type": "function"
    },
    {
      "inputs": [],
      "name": "admin",
      "outputs": [
        {
          "internalType": "address",
          "name": "",
          "type": "address"
        }
      ],
      "stateMutability": "view",
      "type": "function"
    },
    {
      "inputs": [
        {
          "internalType": "uint256",
          "name": "_habitId",
          "type": "uint256"
        }
      ],
      "name": "checkIn",
      "outputs": [],
      "stateMutability": "nonpayable",
      "type": "function"
    },
    {
      "inputs": [
        {
          "internalType": "uint256",
          "name": "_durationDays",
          "type": "uint256"
        },
        {
          "internalType": "uint256",
          "name": "_dailyStake",
          "type": "uint256"
        },
        {
          "internalType": "string",
          "name": "_title",
          "type": "string"
        }
      ],
      "name": "createHabit",
      "outputs": [],
      "stateMutability": "payable",
      "type": "function"
    },
    {
      "inputs": [
        {
          "internalType": "uint256",
          "name": "_habitId",
          "type": "uint256"
        }
      ],
      "name": "finalizeHabit",
      "outputs": [],
      "stateMutability": "nonpayable",
      "type": "function"
    },
    {
      "inputs": [
        {
          "internalType": "address",
          "name": "_user",
          "type": "address"
        }
      ],
      "name": "getAllHabits",
      "outputs": [
        {
          "components": [
            {
              "internalType": "address",
              "name": "user",
              "type": "address"
            },
            {
              "internalType": "bool",
              "name": "active",
              "type": "bool"
            },
            {
              "internalType": "bool",
              "name": "isCompleted",
              "type": "bool"
            },
            {
              "internalType": "string",
              "name": "title",
              "type": "string"
            },
            {
              "internalType": "uint256",
              "name": "startTime",
              "type": "uint256"
            },
            {
              "internalType": "uint256",
              "name": "durationDays",
              "type": "uint256"
            },
            {
              "internalType": "uint256",
              "name": "dailyStake",
              "type": "uint256"
            },
            {
              "internalType": "uint256",
              "name": "checkIns",
              "type": "uint256"
            },
            {
              "internalType": "uint256",
              "name": "streak",
              "type": "uint256"
            },
            {
              "internalType": "uint256",
              "name": "lastCheckIn",
              "type": "uint256"
            },
            {
              "internalType": "uint256",
              "name": "completedAt",
              "type": "uint256"
            }
          ],
          "internalType": "struct HabitTracker.Habit[]",
          "name": "",
          "type": "tuple[]"
        }
      ],
      "stateMutability": "view",
      "type": "function"
    },
    {
      "inputs": [
        {
          "internalType": "address",
          "name": "_user",
          "type": "address"
        },
        {
          "internalType": "uint256",
          "name": "_habitId",
          "type": "uint256"
        }
      ],
      "name": "getHabit",
      "outputs": [
        {
          "components": [
            {
              "internalType": "address",
              "name": "user",
              "type": "address"
            },
            {
              "internalType": "bool",
              "name": "active",
              "type": "bool"
            },
            {
              "internalType": "bool",
              "name": "isCompleted",
              "type": "bool"
            },
            {
              "internalType": "string",
              "name": "title",
              "type": "string"
            },
            {
              "internalType": "uint256",
              "name": "startTime",
              "type": "uint256"
            },
            {
              "internalType": "uint256",
              "name": "durationDays",
              "type": "uint256"
            },
            {
              "internalType": "uint256",
              "name": "dailyStake",
              "type": "uint256"
            },
            {
              "internalType": "uint256",
              "name": "checkIns",
              "type": "uint256"
            },
            {
              "internalType": "uint256",
              "name": "streak",
              "type": "uint256"
            },
            {
              "internalType": "uint256",
              "name": "lastCheckIn",
              "type": "uint256"
            },
            {
              "internalType": "uint256",
              "name": "completedAt",
              "type": "uint256"
            }
          ],
          "internalType": "struct HabitTracker.Habit",
          "name": "",
          "type": "tuple"
        }
      ],
      "stateMutability": "view",
      "type": "function"
    },
    {
      "inputs": [
        {
          "internalType": "address",
          "name": "",
          "type": "address"
        },
        {
          "internalType": "uint256",
          "name": "",
          "type": "uint256"
        }
      ],
      "name": "habitsByUser",
      "outputs": [
        {
          "internalType": "address",
          "name": "user",
          "type": "address"
        },
        {
          "internalType": "bool",
          "name": "active",
          "type": "bool"
        },
        {
          "internalType": "bool",
          "name": "isCompleted",
          "type": "bool"
        },
        {
          "internalType": "string",
          "name": "title",
          "type": "string"
        },
        {
          "internalType": "uint256",
          "name": "startTime",
          "type": "uint256"
        },
        {
          "internalType": "uint256",
          "name": "durationDays",
          "type": "uint256"
        },
        {
          "internalType": "uint256",
          "name": "dailyStake",
          "type": "uint256"
        },
        {
          "internalType": "uint256",
          "name": "checkIns",
          "type": "uint256"
        },
        {
          "internalType": "uint256",
          "name": "streak",
          "type": "uint256"
        },
        {
          "internalType": "uint256",
          "name": "lastCheckIn",
          "type": "uint256"
        },
        {
          "internalType": "uint256",
          "name": "completedAt",
          "type": "uint256"
        }
      ],
      "stateMutability": "view",
      "type": "function"
    },
    {
      "inputs": [],
      "name": "totalPool",
      "outputs": [
        {
          "internalType": "uint256",
          "name": "",
          "type": "uint256"
        }
      ],
      "stateMutability": "view",
      "type": "function"
    },
    {
      "inputs": [
        {
          "internalType": "uint256",
          "name": "_amount",
          "type": "uint256"
        }
      ],
      "name": "withdrawPool",
      "outputs": [],
      "stateMutability": "nonpayable",
      "type": "function"
    }
  ],
  "bytecode": "0x6080604052348015600f57600080fd5b50336000806101000a81548173ffffffffffffffffffffffffffffffffffffffff021916908373ffffffffffffffffffffffffffffffffffffffff1602179055506126578061005f6000396000f3fe6080604052600436106100c25760003560e01c8063b1724b461161007f578063ded0e7b811610059578063ded0e7b814610265578063e95a644f146102a2578063ecfb49a3146102cb578063f851a440146102f6576100c2565b8063b1724b46146101e4578063b6a6d1771461020f578063bcf644751461023a576100c2565b8063380c0f70146100c757806340dec7a0146100e35780634c034ea91461010e57806379c9c13e1461013757806384e0d842146101745780639bdefd561461019d575b600080fd5b6100e160048036038101906100dc9190611583565b610321565b005b3480156100ef57600080fd5b506100f86106aa565b6040516101059190611601565b60405180910390f35b34801561011a57600080fd5b506101356004803603810190610130919061161c565b6106af565b005b34801561014357600080fd5b5061015e600480360381019061015991906116a7565b610873565b60405161016b919061188e565b60405180910390f35b34801561018057600080fd5b5061019b6004803603810190610196919061161c565b610a52565b005b3480156101a957600080fd5b506101c460048036038101906101bf91906116a7565b610db4565b6040516101db9b9a99989796959493929190611918565b60405180910390f35b3480156101f057600080fd5b506101f9610eed565b6040516102069190611601565b60405180910390f35b34801561021b57600080fd5b50610224610ef3565b6040516102319190611601565b60405180910390f35b34801561024657600080fd5b5061024f610ef8565b60405161025c9190611601565b60405180910390f35b34801561027157600080fd5b5061028c600480360381019061028791906119ca565b610f03565b6040516102999190611ba8565b60405180910390f35b3480156102ae57600080fd5b506102c960048036038101906102c4919061161c565b611106565b005b3480156102d757600080fd5b506102e0611355565b6040516102ed9190611601565b60405180910390f35b34801561030257600080fd5b5061030b61135b565b6040516103189190611bca565b60405180910390f35b60078310158015610334575061016d8311155b610373576040517f08c379a000000000000000000000000000000000000000000000000000000000815260040161036a90611c31565b60405180910390fd5b60008151116103b7576040517f08c379a00000000000000000000000000000000000000000000000000000000081526004016103ae90611c9d565b60405180910390fd5b600082116103fa576040517f08c379a00000000000000000000000000000000000000000000000000000000081526004016103f190611d09565b60405180910390fd5b600083836104089190611d58565b905080341461044c576040517f08c379a000000000000000000000000000000000000000000000000000000000815260040161044390611de6565b60405180910390fd5b6000600160003373ffffffffffffffffffffffffffffffffffffffff1673ffffffffffffffffffffffffffffffffffffffff168152602001908152602001600020805490509050600160003373ffffffffffffffffffffffffffffffffffffffff1673ffffffffffffffffffffffffffffffffffffffff1681526020019081526020016000206040518061016001604052803373ffffffffffffffffffffffffffffffffffffffff1681526020016001151581526020016000151581526020018581526020014281526020018781526020018681526020016000815260200160008152602001600081526020016000815250908060018154018082558091505060019003906000526020600020906009020160009091909190915060008201518160000160006101000a81548173ffffffffffffffffffffffffffffffffffffffff021916908373ffffffffffffffffffffffffffffffffffffffff16021790555060208201518160000160146101000a81548160ff02191690831515021790555060408201518160000160156101000a81548160ff02191690831515021790555060608201518160010190816106039190612012565b506080820151816002015560a0820151816003015560c0820151816004015560e0820151816005015561010082015181600601556101208201518160070155610140820151816008015550503373ffffffffffffffffffffffffffffffffffffffff167fbb28b875427630c1278ab22ac0e27fe15b5f1ceea7d8b7b4b67f00854970c5218483888860405161069b94939291906120e4565b60405180910390a25050505050565b605081565b60008054906101000a900473ffffffffffffffffffffffffffffffffffffffff1673ffffffffffffffffffffffffffffffffffffffff163373ffffffffffffffffffffffffffffffffffffffff161461073d576040517f08c379a0000000000000000000000000000000000000000000000000000000008152600401610734906121a2565b60405180910390fd5b600254811115610782576040517f08c379a00000000000000000000000000000000000000000000000000000000081526004016107799061220e565b60405180910390fd5b8060026000828254610794919061222e565b9250508190555060008054906101000a900473ffffffffffffffffffffffffffffffffffffffff1673ffffffffffffffffffffffffffffffffffffffff166108fc829081150290604051600060405180830381858888f19350505050158015610801573d6000803e3d6000fd5b5060008054906101000a900473ffffffffffffffffffffffffffffffffffffffff1673ffffffffffffffffffffffffffffffffffffffff167f6f07e6169c1653554eb707b6f6cd8f7ccf9cc29e54a0d8a71d9d5867d2057ac2826040516108689190611601565b60405180910390a250565b61087b61137f565b600160008473ffffffffffffffffffffffffffffffffffffffff1673ffffffffffffffffffffffffffffffffffffffff16815260200190815260200160002082815481106108cc576108cb612262565b5b9060005260206000209060090201604051806101600160405290816000820160009054906101000a900473ffffffffffffffffffffffffffffffffffffffff1673ffffffffffffffffffffffffffffffffffffffff1673ffffffffffffffffffffffffffffffffffffffff1681526020016000820160149054906101000a900460ff161515151581526020016000820160159054906101000a900460ff1615151515815260200160018201805461098290611e35565b80601f01602080910402602001604051908101604052809291908181526020018280546109ae90611e35565b80156109fb5780601f106109d0576101008083540402835291602001916109fb565b820191906000526020600020905b8154815290600101906020018083116109de57829003601f168201915b50505050508152602001600282015481526020016003820154815260200160048201548152602001600582015481526020016006820154815260200160078201548152602001600882015481525050905092915050565b6000600160003373ffffffffffffffffffffffffffffffffffffffff1673ffffffffffffffffffffffffffffffffffffffff1681526020019081526020016000208281548110610aa557610aa4612262565b5b906000526020600020906009020190508060000160149054906101000a900460ff16610b06576040517f08c379a0000000000000000000000000000000000000000000000000000000008152600401610afd906122dd565b60405180910390fd5b8060000160159054906101000a900460ff1615610b58576040517f08c379a0000000000000000000000000000000000000000000000000000000008152600401610b4f90612349565b60405180910390fd5b620151808160030154610b6b9190611d58565b8160020154610b7a9190612369565b421015610bbc576040517f08c379a0000000000000000000000000000000000000000000000000000000008152600401610bb3906123e9565b60405180910390fd5b60008160000160146101000a81548160ff02191690831515021790555060018160000160156101000a81548160ff0219169083151502179055504281600801819055506000606460508360030154610c149190611d58565b610c1e9190612438565b9050600082600301548360040154610c369190611d58565b9050600082846005015410610d40578190506003846006015410158015610c66575066038d7ea4c6800060025410155b15610ca15766038d7ea4c6800081610c7e9190612369565b905066038d7ea4c6800060026000828254610c99919061222e565b925050819055505b3373ffffffffffffffffffffffffffffffffffffffff166108fc829081150290604051600060405180830381858888f19350505050158015610ce7573d6000803e3d6000fd5b503373ffffffffffffffffffffffffffffffffffffffff167fc9a18245e5c2aab66f03cc4ef8623f0b2edf717895626f963680a2b5d263975386600184604051610d3393929190612469565b60405180910390a2610dad565b8160026000828254610d529190612369565b925050819055503373ffffffffffffffffffffffffffffffffffffffff167fc9a18245e5c2aab66f03cc4ef8623f0b2edf717895626f963680a2b5d263975386600080604051610da4939291906124db565b60405180910390a25b5050505050565b60016020528160005260406000208181548110610dd057600080fd5b9060005260206000209060090201600091509150508060000160009054906101000a900473ffffffffffffffffffffffffffffffffffffffff16908060000160149054906101000a900460ff16908060000160159054906101000a900460ff1690806001018054610e4090611e35565b80601f0160208091040260200160405190810160405280929190818152602001828054610e6c90611e35565b8015610eb95780601f10610e8e57610100808354040283529160200191610eb9565b820191906000526020600020905b815481529060010190602001808311610e9c57829003601f168201915b505050505090806002015490806003015490806004015490806005015490806006015490806007015490806008015490508b565b61016d81565b600781565b66038d7ea4c6800081565b6060600160008373ffffffffffffffffffffffffffffffffffffffff1673ffffffffffffffffffffffffffffffffffffffff168152602001908152602001600020805480602002602001604051908101604052809291908181526020016000905b828210156110fb5783829060005260206000209060090201604051806101600160405290816000820160009054906101000a900473ffffffffffffffffffffffffffffffffffffffff1673ffffffffffffffffffffffffffffffffffffffff1673ffffffffffffffffffffffffffffffffffffffff1681526020016000820160149054906101000a900460ff161515151581526020016000820160159054906101000a900460ff1615151515815260200160018201805461102490611e35565b80601f016020809104026020016040519081016040528092919081815260200182805461105090611e35565b801561109d5780601f106110725761010080835404028352916020019161109d565b820191906000526020600020905b81548152906001019060200180831161108057829003601f168201915b5050505050815260200160028201548152602001600382015481526020016004820154815260200160058201548152602001600682015481526020016007820154815260200160088201548152505081526020019060010190610f64565b505050509050919050565b6000600160003373ffffffffffffffffffffffffffffffffffffffff1673ffffffffffffffffffffffffffffffffffffffff168152602001908152602001600020828154811061115957611158612262565b5b906000526020600020906009020190508060000160149054906101000a900460ff166111ba576040517f08c379a00000000000000000000000000000000000000000000000000000000081526004016111b1906122dd565b60405180910390fd5b6000620151808260020154426111d0919061222e565b6111da9190612438565b905081600301548110611222576040517f08c379a00000000000000000000000000000000000000000000000000000000081526004016112199061255e565b60405180910390fd5b611c206201518083600701546112389190612369565b611242919061222e565b4211611283576040517f08c379a000000000000000000000000000000000000000000000000000000000815260040161127a906125ca565b60405180910390fd5b60018260050160008282546112989190612369565b92505081905550611c206201518083600701546112b59190612369565b6112bf9190612369565b42116112e65760018260060160008282546112da9190612369565b925050819055506112f1565b600182600601819055505b4282600701819055503373ffffffffffffffffffffffffffffffffffffffff167f7e4c1be4a7f9736334ae1a21a54b75fe0b8ac49d1c72b89a21ec4802d4f6fabb84838560060154604051611348939291906125ea565b60405180910390a2505050565b60025481565b60008054906101000a900473ffffffffffffffffffffffffffffffffffffffff1681565b604051806101600160405280600073ffffffffffffffffffffffffffffffffffffffff16815260200160001515815260200160001515815260200160608152602001600081526020016000815260200160008152602001600081526020016000815260200160008152602001600081525090565b6000604051905090565b600080fd5b600080fd5b6000819050919050565b61141a81611407565b811461142557600080fd5b50565b60008135905061143781611411565b92915050565b600080fd5b600080fd5b6000601f19601f8301169050919050565b7f4e487b7100000000000000000000000000000000000000000000000000000000600052604160045260246000fd5b61149082611447565b810181811067ffffffffffffffff821117156114af576114ae611458565b5b80604052505050565b60006114c26113f3565b90506114ce8282611487565b919050565b600067ffffffffffffffff8211156114ee576114ed611458565b5b6114f782611447565b9050602081019050919050565b82818337600083830152505050565b6000611526611521846114d3565b6114b8565b90508281526020810184848401111561154257611541611442565b5b61154d848285611504565b509392505050565b600082601f83011261156a5761156961143d565b5b813561157a848260208601611513565b91505092915050565b60008060006060848603121561159c5761159b6113fd565b5b60006115aa86828701611428565b93505060206115bb86828701611428565b925050604084013567ffffffffffffffff8111156115dc576115db611402565b5b6115e886828701611555565b9150509250925092565b6115fb81611407565b82525050565b600060208201905061161660008301846115f2565b92915050565b600060208284031215611632576116316113fd565b5b600061164084828501611428565b91505092915050565b600073ffffffffffffffffffffffffffffffffffffffff82169050919050565b600061167482611649565b9050919050565b61168481611669565b811461168f57600080fd5b50565b6000813590506116a18161167b565b92915050565b600080604083850312156116be576116bd6113fd565b5b60006116cc85828601611692565b92505060206116dd85828601611428565b9150509250929050565b6116f081611669565b82525050565b60008115159050919050565b61170b816116f6565b82525050565b600081519050919050565b600082825260208201905092915050565b60005b8381101561174b578082015181840152602081019050611730565b60008484015250505050565b600061176282611711565b61176c818561171c565b935061177c81856020860161172d565b61178581611447565b840191505092915050565b61179981611407565b82525050565b6000610160830160008301516117b860008601826116e7565b5060208301516117cb6020860182611702565b5060408301516117de6040860182611702565b50606083015184820360608601526117f68282611757565b915050608083015161180b6080860182611790565b5060a083015161181e60a0860182611790565b5060c083015161183160c0860182611790565b5060e083015161184460e0860182611790565b50610100830151611859610100860182611790565b5061012083015161186e610120860182611790565b50610140830151611883610140860182611790565b508091505092915050565b600060208201905081810360008301526118a8818461179f565b905092915050565b6118b981611669565b82525050565b6118c8816116f6565b82525050565b600082825260208201905092915050565b60006118ea82611711565b6118f481856118ce565b935061190481856020860161172d565b61190d81611447565b840191505092915050565b60006101608201905061192e600083018e6118b0565b61193b602083018d6118bf565b611948604083018c6118bf565b818103606083015261195a818b6118df565b9050611969608083018a6115f2565b61197660a08301896115f2565b61198360c08301886115f2565b61199060e08301876115f2565b61199e6101008301866115f2565b6119ac6101208301856115f2565b6119ba6101408301846115f2565b9c9b505050505050505050505050565b6000602082840312156119e0576119df6113fd565b5b60006119ee84828501611692565b91505092915050565b600081519050919050565b600082825260208201905092915050565b6000819050602082019050919050565b600061016083016000830151611a3c60008601826116e7565b506020830151611a4f6020860182611702565b506040830151611a626040860182611702565b5060608301518482036060860152611a7a8282611757565b9150506080830151611a8f6080860182611790565b5060a0830151611aa260a0860182611790565b5060c0830151611ab560c0860182611790565b5060e0830151611ac860e0860182611790565b50610100830151611add610100860182611790565b50610120830151611af2610120860182611790565b50610140830151611b07610140860182611790565b508091505092915050565b6000611b1e8383611a23565b905092915050565b6000602082019050919050565b6000611b3e826119f7565b611b488185611a02565b935083602082028501611b5a85611a13565b8060005b85811015611b965784840389528151611b778582611b12565b9450611b8283611b26565b925060208a01995050600181019050611b5e565b50829750879550505050505092915050565b60006020820190508181036000830152611bc28184611b33565b905092915050565b6000602082019050611bdf60008301846118b0565b92915050565b7f4475726174696f6e206d75737420626520372d33363520646179730000000000600082015250565b6000611c1b601b836118ce565b9150611c2682611be5565b602082019050919050565b60006020820190508181036000830152611c4a81611c0e565b9050919050565b7f5469746c652063616e6e6f7420626520656d7074790000000000000000000000600082015250565b6000611c876015836118ce565b9150611c9282611c51565b602082019050919050565b60006020820190508181036000830152611cb681611c7a565b9050919050565b7f5374616b65206d7573742062652067726561746572207468616e203000000000600082015250565b6000611cf3601c836118ce565b9150611cfe82611cbd565b602082019050919050565b60006020820190508181036000830152611d2281611ce6565b9050919050565b7f4e487b7100000000000000000000000000000000000000000000000000000000600052601160045260246000fd5b6000611d6382611407565b9150611d6e83611407565b9250828202611d7c81611407565b91508282048414831517611d9357611d92611d29565b5b5092915050565b7f496e636f7272656374207374616b6520616d6f756e7400000000000000000000600082015250565b6000611dd06016836118ce565b9150611ddb82611d9a565b602082019050919050565b60006020820190508181036000830152611dff81611dc3565b9050919050565b7f4e487b7100000000000000000000000000000000000000000000000000000000600052602260045260246000fd5b60006002820490506001821680611e4d57607f821691505b602082108103611e6057611e5f611e06565b5b50919050565b60008190508160005260206000209050919050565b60006020601f8301049050919050565b600082821b905092915050565b600060088302611ec87fffffffffffffffffffffffffffffffffffffffffffffffffffffffffffffffff82611e8b565b611ed28683611e8b565b95508019841693508086168417925050509392505050565b6000819050919050565b6000611f0f611f0a611f0584611407565b611eea565b611407565b9050919050565b6000819050919050565b611f2983611ef4565b611f3d611f3582611f16565b848454611e98565b825550505050565b600090565b611f52611f45565b611f5d818484611f20565b505050565b5b81811015611f8157611f76600082611f4a565b600181019050611f63565b5050565b601f821115611fc657611f9781611e66565b611fa084611e7b565b81016020851015611faf578190505b611fc3611fbb85611e7b565b830182611f62565b50505b505050565b600082821c905092915050565b6000611fe960001984600802611fcb565b1980831691505092915050565b60006120028383611fd8565b9150826002028217905092915050565b61201b82611711565b67ffffffffffffffff81111561203457612033611458565b5b61203e8254611e35565b612049828285611f85565b600060209050601f83116001811461207c576000841561206a578287015190505b6120748582611ff6565b8655506120dc565b601f19841661208a86611e66565b60005b828110156120b25784890151825560018201915060208501945060208101905061208d565b868310156120cf57848901516120cb601f891682611fd8565b8355505b6001600288020188555050505b505050505050565b600060808201905081810360008301526120fe81876118df565b905061210d60208301866115f2565b61211a60408301856115f2565b61212760608301846115f2565b95945050505050565b7f4f6e6c792061646d696e2063616e2063616c6c20746869732066756e6374696f60008201527f6e00000000000000000000000000000000000000000000000000000000000000602082015250565b600061218c6021836118ce565b915061219782612130565b604082019050919050565b600060208201905081810360008301526121bb8161217f565b9050919050565b7f496e73756666696369656e7420706f6f6c2062616c616e636500000000000000600082015250565b60006121f86019836118ce565b9150612203826121c2565b602082019050919050565b60006020820190508181036000830152612227816121eb565b9050919050565b600061223982611407565b915061224483611407565b925082820390508181111561225c5761225b611d29565b5b92915050565b7f4e487b7100000000000000000000000000000000000000000000000000000000600052603260045260246000fd5b7f4861626974206e6f742061637469766500000000000000000000000000000000600082015250565b60006122c76010836118ce565b91506122d282612291565b602082019050919050565b600060208201905081810360008301526122f6816122ba565b9050919050565b7f486162697420616c726561647920636f6d706c65746564000000000000000000600082015250565b60006123336017836118ce565b915061233e826122fd565b602082019050919050565b6000602082019050818103600083015261236281612326565b9050919050565b600061237482611407565b915061237f83611407565b925082820190508082111561239757612396611d29565b5b92915050565b7f486162697420706572696f64206e6f7420656e64656400000000000000000000600082015250565b60006123d36016836118ce565b91506123de8261239d565b602082019050919050565b60006020820190508181036000830152612402816123c6565b9050919050565b7f4e487b7100000000000000000000000000000000000000000000000000000000600052601260045260246000fd5b600061244382611407565b915061244e83611407565b92508261245e5761245d612409565b5b828204905092915050565b600060608201905061247e60008301866115f2565b61248b60208301856118bf565b61249860408301846115f2565b949350505050565b6000819050919050565b60006124c56124c06124bb846124a0565b611eea565b611407565b9050919050565b6124d5816124aa565b82525050565b60006060820190506124f060008301866115f2565b6124fd60208301856118bf565b61250a60408301846124cc565b949350505050565b7f486162697420706572696f6420656e6465640000000000000000000000000000600082015250565b60006125486012836118ce565b915061255382612512565b602082019050919050565b600060208201905081810360008301526125778161253b565b9050919050565b7f416c726561647920636865636b656420696e20746f6461790000000000000000600082015250565b60006125b46018836118ce565b91506125bf8261257e565b602082019050919050565b600060208201905081810360008301526125e3816125a7565b9050919050565b60006060820190506125ff60008301866115f2565b61260c60208301856115f2565b61261960408301846115f2565b94935050505056fea264697066735822122078ba5589cbd6e457888999280ad7963062d3cca64bed0889f6b14ee8fe70b97464736f6c634300081c0033",
  "linkReferences": {},
  "deployedLinkReferences": {}
}